{
  "_format": "hh-sol-artifact-1",
  "contractName": "share",
  "sourceName": "contracts/share.sol",
  "abi": [
    {
      "inputs": [],
      "stateMutability": "nonpayable",
      "type": "constructor"
    },
    {
      "anonymous": false,
      "inputs": [
        {
          "indexed": true,
          "internalType": "address",
          "name": "owner",
          "type": "address"
        },
        {
          "indexed": true,
          "internalType": "address",
          "name": "approved",
          "type": "address"
        },
        {
          "indexed": true,
          "internalType": "uint256",
          "name": "tokenId",
          "type": "uint256"
        }
      ],
      "name": "Approval",
      "type": "event"
    },
    {
      "anonymous": false,
      "inputs": [
        {
          "indexed": true,
          "internalType": "address",
          "name": "owner",
          "type": "address"
        },
        {
          "indexed": true,
          "internalType": "address",
          "name": "operator",
          "type": "address"
        },
        {
          "indexed": false,
          "internalType": "bool",
          "name": "approved",
          "type": "bool"
        }
      ],
      "name": "ApprovalForAll",
      "type": "event"
    },
    {
      "anonymous": false,
      "inputs": [
        {
          "indexed": true,
          "internalType": "address",
          "name": "from",
          "type": "address"
        },
        {
          "indexed": true,
          "internalType": "address",
          "name": "to",
          "type": "address"
        },
        {
          "indexed": true,
          "internalType": "uint256",
          "name": "tokenId",
          "type": "uint256"
        }
      ],
      "name": "Transfer",
      "type": "event"
    },
    {
      "inputs": [
        {
          "internalType": "uint256",
          "name": "add",
          "type": "uint256"
        }
      ],
      "name": "addSupply",
      "outputs": [],
      "stateMutability": "nonpayable",
      "type": "function"
    },
    {
      "inputs": [
        {
          "internalType": "address",
          "name": "to",
          "type": "address"
        },
        {
          "internalType": "uint256",
          "name": "tokenId",
          "type": "uint256"
        }
      ],
      "name": "approve",
      "outputs": [],
      "stateMutability": "nonpayable",
      "type": "function"
    },
    {
      "inputs": [
        {
          "internalType": "address",
          "name": "owner",
          "type": "address"
        }
      ],
      "name": "balanceOf",
      "outputs": [
        {
          "internalType": "uint256",
          "name": "",
          "type": "uint256"
        }
      ],
      "stateMutability": "view",
      "type": "function"
    },
    {
      "inputs": [
        {
          "internalType": "uint256",
          "name": "tokenId",
          "type": "uint256"
        }
      ],
      "name": "getApproved",
      "outputs": [
        {
          "internalType": "address",
          "name": "",
          "type": "address"
        }
      ],
      "stateMutability": "view",
      "type": "function"
    },
    {
      "inputs": [
        {
          "internalType": "address",
          "name": "owner",
          "type": "address"
        },
        {
          "internalType": "address",
          "name": "operator",
          "type": "address"
        }
      ],
      "name": "isApprovedForAll",
      "outputs": [
        {
          "internalType": "bool",
          "name": "",
          "type": "bool"
        }
      ],
      "stateMutability": "view",
      "type": "function"
    },
    {
      "inputs": [
        {
          "internalType": "address",
          "name": "forUser",
          "type": "address"
        },
        {
          "internalType": "string",
          "name": "tokenURI",
          "type": "string"
        }
      ],
      "name": "mintTokens",
      "outputs": [
        {
          "internalType": "uint256",
          "name": "",
          "type": "uint256"
        }
      ],
      "stateMutability": "nonpayable",
      "type": "function"
    },
    {
      "inputs": [],
      "name": "name",
      "outputs": [
        {
          "internalType": "string",
          "name": "",
          "type": "string"
        }
      ],
      "stateMutability": "view",
      "type": "function"
    },
    {
      "inputs": [
        {
          "internalType": "uint256",
          "name": "tokenId",
          "type": "uint256"
        }
      ],
      "name": "ownerOf",
      "outputs": [
        {
          "internalType": "address",
          "name": "",
          "type": "address"
        }
      ],
      "stateMutability": "view",
      "type": "function"
    },
    {
      "inputs": [
        {
          "internalType": "address",
          "name": "from",
          "type": "address"
        },
        {
          "internalType": "address",
          "name": "to",
          "type": "address"
        },
        {
          "internalType": "uint256",
          "name": "tokenId",
          "type": "uint256"
        }
      ],
      "name": "safeTransferFrom",
      "outputs": [],
      "stateMutability": "nonpayable",
      "type": "function"
    },
    {
      "inputs": [
        {
          "internalType": "address",
          "name": "from",
          "type": "address"
        },
        {
          "internalType": "address",
          "name": "to",
          "type": "address"
        },
        {
          "internalType": "uint256",
          "name": "tokenId",
          "type": "uint256"
        },
        {
          "internalType": "bytes",
          "name": "data",
          "type": "bytes"
        }
      ],
      "name": "safeTransferFrom",
      "outputs": [],
      "stateMutability": "nonpayable",
      "type": "function"
    },
    {
      "inputs": [
        {
          "internalType": "address",
          "name": "operator",
          "type": "address"
        },
        {
          "internalType": "bool",
          "name": "approved",
          "type": "bool"
        }
      ],
      "name": "setApprovalForAll",
      "outputs": [],
      "stateMutability": "nonpayable",
      "type": "function"
    },
    {
      "inputs": [
        {
          "internalType": "bytes4",
          "name": "interfaceId",
          "type": "bytes4"
        }
      ],
      "name": "supportsInterface",
      "outputs": [
        {
          "internalType": "bool",
          "name": "",
          "type": "bool"
        }
      ],
      "stateMutability": "view",
      "type": "function"
    },
    {
      "inputs": [],
      "name": "symbol",
      "outputs": [
        {
          "internalType": "string",
          "name": "",
          "type": "string"
        }
      ],
      "stateMutability": "view",
      "type": "function"
    },
    {
      "inputs": [
        {
          "internalType": "uint256",
          "name": "tokenId",
          "type": "uint256"
        }
      ],
      "name": "tokenURI",
      "outputs": [
        {
          "internalType": "string",
          "name": "",
          "type": "string"
        }
      ],
      "stateMutability": "view",
      "type": "function"
    },
    {
      "inputs": [],
      "name": "totalMinted",
      "outputs": [
        {
          "internalType": "uint256",
          "name": "",
          "type": "uint256"
        }
      ],
      "stateMutability": "view",
      "type": "function"
    },
    {
      "inputs": [
        {
          "internalType": "address",
          "name": "from",
          "type": "address"
        },
        {
          "internalType": "address",
          "name": "to",
          "type": "address"
        },
        {
          "internalType": "uint256",
          "name": "tokenId",
          "type": "uint256"
        }
      ],
      "name": "transferFrom",
      "outputs": [],
      "stateMutability": "nonpayable",
      "type": "function"
    }
  ],
  "bytecode": "0x6080604052620186a06008553480156200001857600080fd5b506040805180820182526009815268436c6f76657220465360b81b60208083019182528351808501909452600384526243465360e81b908401528151919291620000659160009162000096565b5080516200007b90600190602084019062000096565b5050600980546001600160a01b031916331790555062000179565b828054620000a4906200013c565b90600052602060002090601f016020900481019282620000c8576000855562000113565b82601f10620000e357805160ff191683800117855562000113565b8280016001018555821562000113579182015b8281111562000113578251825591602001919060010190620000f6565b506200012192915062000125565b5090565b5b8082111562000121576000815560010162000126565b600181811c908216806200015157607f821691505b602082108114156200017357634e487b7160e01b600052602260045260246000fd5b50919050565b61179380620001896000396000f3fe608060405234801561001057600080fd5b50600436106101005760003560e01c80636352211e11610097578063a2309ff811610066578063a2309ff81461021d578063b88d4fde14610225578063c87b56dd14610238578063e985e9c51461024b57600080fd5b80636352211e146101dc57806370a08231146101ef57806395d89b4114610202578063a22cb4651461020a57600080fd5b806323b872dd116100d357806323b872dd1461018257806340753a761461019557806342842e0e146101a8578063510a3ea9146101bb57600080fd5b806301ffc9a71461010557806306fdde031461012d578063081812fc14610142578063095ea7b31461016d575b600080fd5b6101186101133660046114a3565b610287565b60405190151581526020015b60405180910390f35b6101356102d9565b604051610124919061158e565b6101556101503660046114dd565b61036b565b6040516001600160a01b039091168152602001610124565b61018061017b366004611479565b610392565b005b610180610190366004611323565b6104ad565b6101806101a33660046114dd565b6104de565b6101806101b6366004611323565b610539565b6101ce6101c9366004611417565b610554565b604051908152602001610124565b6101556101ea3660046114dd565b6105dc565b6101ce6101fd3660046112d5565b61063c565b6101356106c2565b6101806102183660046113db565b6106d1565b6101ce6106e0565b61018061023336600461135f565b6106f0565b6101356102463660046114dd565b610728565b6101186102593660046112f0565b6001600160a01b03918216600090815260056020908152604080832093909416825291909152205460ff1690565b60006001600160e01b031982166380ac58cd60e01b14806102b857506001600160e01b03198216635b5e139f60e01b145b806102d357506301ffc9a760e01b6001600160e01b03198316145b92915050565b6060600080546102e8906116e0565b80601f0160208091040260200160405190810160405280929190818152602001828054610314906116e0565b80156103615780601f1061033657610100808354040283529160200191610361565b820191906000526020600020905b81548152906001019060200180831161034457829003601f168201915b5050505050905090565b600061037682610839565b506000908152600460205260409020546001600160a01b031690565b600061039d826105dc565b9050806001600160a01b0316836001600160a01b031614156104105760405162461bcd60e51b815260206004820152602160248201527f4552433732313a20617070726f76616c20746f2063757272656e74206f776e656044820152603960f91b60648201526084015b60405180910390fd5b336001600160a01b038216148061042c575061042c8133610259565b61049e5760405162461bcd60e51b815260206004820152603d60248201527f4552433732313a20617070726f76652063616c6c6572206973206e6f7420746f60448201527f6b656e206f776e6572206f7220617070726f76656420666f7220616c6c0000006064820152608401610407565b6104a8838361089b565b505050565b6104b73382610909565b6104d35760405162461bcd60e51b8152600401610407906115a1565b6104a8838383610987565b6009546001600160a01b031633146105255760405162461bcd60e51b815260206004820152600a60248201526927b7363c9037bbb732b960b11b6044820152606401610407565b806008546105339190611685565b60085550565b6104a8838383604051806020016040528060008152506106f0565b600061055f60075490565b60085410156105a65760405162461bcd60e51b8152602060048201526013602482015272151bdd185b08131a5b5a5d0814995858da1959606a1b6044820152606401610407565b60006105b160075490565b90506105bd8482610af8565b6105c78184610c91565b6105d5600780546001019055565b9392505050565b6000818152600260205260408120546001600160a01b0316806102d35760405162461bcd60e51b8152602060048201526018602482015277115490cdcc8c4e881a5b9d985b1a59081d1bdad95b88125160421b6044820152606401610407565b60006001600160a01b0382166106a65760405162461bcd60e51b815260206004820152602960248201527f4552433732313a2061646472657373207a65726f206973206e6f7420612076616044820152683634b21037bbb732b960b91b6064820152608401610407565b506001600160a01b031660009081526003602052604090205490565b6060600180546102e8906116e0565b6106dc338383610d2b565b5050565b60006106eb60075490565b905090565b6106fa3383610909565b6107165760405162461bcd60e51b8152600401610407906115a1565b61072284848484610dfa565b50505050565b606061073382610839565b6000828152600660205260408120805461074c906116e0565b80601f0160208091040260200160405190810160405280929190818152602001828054610778906116e0565b80156107c55780601f1061079a576101008083540402835291602001916107c5565b820191906000526020600020905b8154815290600101906020018083116107a857829003601f168201915b5050505050905060006107e360408051602081019091526000815290565b90508051600014156107f6575092915050565b815115610828578082604051602001610810929190611522565b60405160208183030381529060405292505050919050565b61083184610e2d565b949350505050565b6000818152600260205260409020546001600160a01b03166108985760405162461bcd60e51b8152602060048201526018602482015277115490cdcc8c4e881a5b9d985b1a59081d1bdad95b88125160421b6044820152606401610407565b50565b600081815260046020526040902080546001600160a01b0319166001600160a01b03841690811790915581906108d0826105dc565b6001600160a01b03167f8c5be1e5ebec7d5bd14f71427d1e84f3dd0314c0f7b2291e5b200ac8c7c3b92560405160405180910390a45050565b600080610915836105dc565b9050806001600160a01b0316846001600160a01b0316148061095c57506001600160a01b0380821660009081526005602090815260408083209388168352929052205460ff165b806108315750836001600160a01b03166109758461036b565b6001600160a01b031614949350505050565b826001600160a01b031661099a826105dc565b6001600160a01b0316146109c05760405162461bcd60e51b815260040161040790611640565b6001600160a01b038216610a225760405162461bcd60e51b8152602060048201526024808201527f4552433732313a207472616e7366657220746f20746865207a65726f206164646044820152637265737360e01b6064820152608401610407565b610a2f8383836001610ea0565b826001600160a01b0316610a42826105dc565b6001600160a01b031614610a685760405162461bcd60e51b815260040161040790611640565b600081815260046020908152604080832080546001600160a01b03199081169091556001600160a01b0387811680865260038552838620805460001901905590871680865283862080546001019055868652600290945282852080549092168417909155905184937fddf252ad1be2c89b69c2b068fc378daa952ba7f163c4a11628f55a4df523b3ef91a4505050565b6001600160a01b038216610b4e5760405162461bcd60e51b815260206004820181905260248201527f4552433732313a206d696e7420746f20746865207a65726f20616464726573736044820152606401610407565b6000818152600260205260409020546001600160a01b031615610bb35760405162461bcd60e51b815260206004820152601c60248201527f4552433732313a20746f6b656e20616c7265616479206d696e746564000000006044820152606401610407565b610bc1600083836001610ea0565b6000818152600260205260409020546001600160a01b031615610c265760405162461bcd60e51b815260206004820152601c60248201527f4552433732313a20746f6b656e20616c7265616479206d696e746564000000006044820152606401610407565b6001600160a01b038216600081815260036020908152604080832080546001019055848352600290915280822080546001600160a01b0319168417905551839291907fddf252ad1be2c89b69c2b068fc378daa952ba7f163c4a11628f55a4df523b3ef908290a45050565b6000828152600260205260409020546001600160a01b0316610d0c5760405162461bcd60e51b815260206004820152602e60248201527f45524337323155524953746f726167653a2055524920736574206f66206e6f6e60448201526d32bc34b9ba32b73a103a37b5b2b760911b6064820152608401610407565b600082815260066020908152604090912082516104a8928401906111aa565b816001600160a01b0316836001600160a01b03161415610d8d5760405162461bcd60e51b815260206004820152601960248201527f4552433732313a20617070726f766520746f2063616c6c6572000000000000006044820152606401610407565b6001600160a01b03838116600081815260056020908152604080832094871680845294825291829020805460ff191686151590811790915591519182527f17307eab39ab6107e8899845ad3d59bd9653f200f220920489ca2b5937696c31910160405180910390a3505050565b610e05848484610987565b610e1184848484610f28565b6107225760405162461bcd60e51b8152600401610407906115ee565b6060610e3882610839565b6000610e4f60408051602081019091526000815290565b90506000815111610e6f57604051806020016040528060008152506105d5565b80610e7984611035565b604051602001610e8a929190611522565b6040516020818303038152906040529392505050565b6001811115610722576001600160a01b03841615610ee6576001600160a01b03841660009081526003602052604081208054839290610ee090849061169d565b90915550505b6001600160a01b03831615610722576001600160a01b03831660009081526003602052604081208054839290610f1d908490611685565b909155505050505050565b60006001600160a01b0384163b1561102a57604051630a85bd0160e11b81526001600160a01b0385169063150b7a0290610f6c903390899088908890600401611551565b602060405180830381600087803b158015610f8657600080fd5b505af1925050508015610fb6575060408051601f3d908101601f19168201909252610fb3918101906114c0565b60015b611010573d808015610fe4576040519150601f19603f3d011682016040523d82523d6000602084013e610fe9565b606091505b5080516110085760405162461bcd60e51b8152600401610407906115ee565b805181602001fd5b6001600160e01b031916630a85bd0160e11b149050610831565b506001949350505050565b60606000611042836110d2565b600101905060008167ffffffffffffffff81111561106257611062611731565b6040519080825280601f01601f19166020018201604052801561108c576020820181803683370190505b5090508181016020015b600019016f181899199a1a9b1b9c1cb0b131b232b360811b600a86061a8153600a85049450846110c5576110ca565b611096565b509392505050565b60008072184f03e93ff9f4daa797ed6e38ed64bf6a1f0160401b83106111115772184f03e93ff9f4daa797ed6e38ed64bf6a1f0160401b830492506040015b6d04ee2d6d415b85acef8100000000831061113d576d04ee2d6d415b85acef8100000000830492506020015b662386f26fc10000831061115b57662386f26fc10000830492506010015b6305f5e1008310611173576305f5e100830492506008015b612710831061118757612710830492506004015b60648310611199576064830492506002015b600a83106102d35760010192915050565b8280546111b6906116e0565b90600052602060002090601f0160209004810192826111d8576000855561121e565b82601f106111f157805160ff191683800117855561121e565b8280016001018555821561121e579182015b8281111561121e578251825591602001919060010190611203565b5061122a92915061122e565b5090565b5b8082111561122a576000815560010161122f565b600067ffffffffffffffff8084111561125e5761125e611731565b604051601f8501601f19908116603f0116810190828211818310171561128657611286611731565b8160405280935085815286868601111561129f57600080fd5b858560208301376000602087830101525050509392505050565b80356001600160a01b03811681146112d057600080fd5b919050565b6000602082840312156112e757600080fd5b6105d5826112b9565b6000806040838503121561130357600080fd5b61130c836112b9565b915061131a602084016112b9565b90509250929050565b60008060006060848603121561133857600080fd5b611341846112b9565b925061134f602085016112b9565b9150604084013590509250925092565b6000806000806080858703121561137557600080fd5b61137e856112b9565b935061138c602086016112b9565b925060408501359150606085013567ffffffffffffffff8111156113af57600080fd5b8501601f810187136113c057600080fd5b6113cf87823560208401611243565b91505092959194509250565b600080604083850312156113ee57600080fd5b6113f7836112b9565b91506020830135801515811461140c57600080fd5b809150509250929050565b6000806040838503121561142a57600080fd5b611433836112b9565b9150602083013567ffffffffffffffff81111561144f57600080fd5b8301601f8101851361146057600080fd5b61146f85823560208401611243565b9150509250929050565b6000806040838503121561148c57600080fd5b611495836112b9565b946020939093013593505050565b6000602082840312156114b557600080fd5b81356105d581611747565b6000602082840312156114d257600080fd5b81516105d581611747565b6000602082840312156114ef57600080fd5b5035919050565b6000815180845261150e8160208601602086016116b4565b601f01601f19169290920160200192915050565b600083516115348184602088016116b4565b8351908301906115488183602088016116b4565b01949350505050565b6001600160a01b0385811682528416602082015260408101839052608060608201819052600090611584908301846114f6565b9695505050505050565b6020815260006105d560208301846114f6565b6020808252602d908201527f4552433732313a2063616c6c6572206973206e6f7420746f6b656e206f776e6560408201526c1c881bdc88185c1c1c9bdd9959609a1b606082015260800190565b60208082526032908201527f4552433732313a207472616e7366657220746f206e6f6e20455243373231526560408201527131b2b4bb32b91034b6b83632b6b2b73a32b960711b606082015260800190565b60208082526025908201527f4552433732313a207472616e736665722066726f6d20696e636f72726563742060408201526437bbb732b960d91b606082015260800190565b600082198211156116985761169861171b565b500190565b6000828210156116af576116af61171b565b500390565b60005b838110156116cf5781810151838201526020016116b7565b838111156107225750506000910152565b600181811c908216806116f457607f821691505b6020821081141561171557634e487b7160e01b600052602260045260246000fd5b50919050565b634e487b7160e01b600052601160045260246000fd5b634e487b7160e01b600052604160045260246000fd5b6001600160e01b03198116811461089857600080fdfea26469706673582212200aee7c6847bc18cee90385b437f508f319513538bd1d7063a8795386503815d664736f6c63430008070033",
  "linkReferences": {},
  "deployedLinkReferences": {}
}