{
  "_format": "hh-sol-artifact-1",
  "contractName": "share",
  "sourceName": "contracts/share.sol",
  "abi": [
    {
      "inputs": [],
      "stateMutability": "nonpayable",
      "type": "constructor"
    },
    {
      "anonymous": false,
      "inputs": [
        {
          "indexed": true,
          "internalType": "address",
          "name": "owner",
          "type": "address"
        },
        {
          "indexed": true,
          "internalType": "address",
          "name": "approved",
          "type": "address"
        },
        {
          "indexed": true,
          "internalType": "uint256",
          "name": "tokenId",
          "type": "uint256"
        }
      ],
      "name": "Approval",
      "type": "event"
    },
    {
      "anonymous": false,
      "inputs": [
        {
          "indexed": true,
          "internalType": "address",
          "name": "owner",
          "type": "address"
        },
        {
          "indexed": true,
          "internalType": "address",
          "name": "operator",
          "type": "address"
        },
        {
          "indexed": false,
          "internalType": "bool",
          "name": "approved",
          "type": "bool"
        }
      ],
      "name": "ApprovalForAll",
      "type": "event"
    },
    {
      "anonymous": false,
      "inputs": [
        {
          "indexed": true,
          "internalType": "address",
          "name": "from",
          "type": "address"
        },
        {
          "indexed": true,
          "internalType": "address",
          "name": "to",
          "type": "address"
        },
        {
          "indexed": true,
          "internalType": "uint256",
          "name": "tokenId",
          "type": "uint256"
        }
      ],
      "name": "Transfer",
      "type": "event"
    },
    {
      "inputs": [
        {
          "internalType": "uint256",
          "name": "add",
          "type": "uint256"
        }
      ],
      "name": "addSupply",
      "outputs": [],
      "stateMutability": "nonpayable",
      "type": "function"
    },
    {
      "inputs": [
        {
          "internalType": "address",
          "name": "to",
          "type": "address"
        },
        {
          "internalType": "uint256",
          "name": "tokenId",
          "type": "uint256"
        }
      ],
      "name": "approve",
      "outputs": [],
      "stateMutability": "nonpayable",
      "type": "function"
    },
    {
      "inputs": [
        {
          "internalType": "address",
          "name": "owner",
          "type": "address"
        }
      ],
      "name": "balanceOf",
      "outputs": [
        {
          "internalType": "uint256",
          "name": "",
          "type": "uint256"
        }
      ],
      "stateMutability": "view",
      "type": "function"
    },
    {
      "inputs": [
        {
          "internalType": "uint256",
          "name": "tokenId",
          "type": "uint256"
        }
      ],
      "name": "getApproved",
      "outputs": [
        {
          "internalType": "address",
          "name": "",
          "type": "address"
        }
      ],
      "stateMutability": "view",
      "type": "function"
    },
    {
      "inputs": [
        {
          "internalType": "address",
          "name": "owner",
          "type": "address"
        },
        {
          "internalType": "address",
          "name": "operator",
          "type": "address"
        }
      ],
      "name": "isApprovedForAll",
      "outputs": [
        {
          "internalType": "bool",
          "name": "",
          "type": "bool"
        }
      ],
      "stateMutability": "view",
      "type": "function"
    },
    {
      "inputs": [
        {
          "internalType": "address",
          "name": "forUser",
          "type": "address"
        },
        {
          "internalType": "string",
          "name": "tokenURI",
          "type": "string"
        }
      ],
      "name": "mintTokens",
      "outputs": [
        {
          "internalType": "uint256",
          "name": "",
          "type": "uint256"
        }
      ],
      "stateMutability": "nonpayable",
      "type": "function"
    },
    {
      "inputs": [],
      "name": "name",
      "outputs": [
        {
          "internalType": "string",
          "name": "",
          "type": "string"
        }
      ],
      "stateMutability": "view",
      "type": "function"
    },
    {
      "inputs": [
        {
          "internalType": "uint256",
          "name": "tokenId",
          "type": "uint256"
        }
      ],
      "name": "ownerOf",
      "outputs": [
        {
          "internalType": "address",
          "name": "",
          "type": "address"
        }
      ],
      "stateMutability": "view",
      "type": "function"
    },
    {
      "inputs": [
        {
          "internalType": "address",
          "name": "from",
          "type": "address"
        },
        {
          "internalType": "address",
          "name": "to",
          "type": "address"
        },
        {
          "internalType": "uint256",
          "name": "tokenId",
          "type": "uint256"
        }
      ],
      "name": "safeTransferFrom",
      "outputs": [],
      "stateMutability": "nonpayable",
      "type": "function"
    },
    {
      "inputs": [
        {
          "internalType": "address",
          "name": "from",
          "type": "address"
        },
        {
          "internalType": "address",
          "name": "to",
          "type": "address"
        },
        {
          "internalType": "uint256",
          "name": "tokenId",
          "type": "uint256"
        },
        {
          "internalType": "bytes",
          "name": "data",
          "type": "bytes"
        }
      ],
      "name": "safeTransferFrom",
      "outputs": [],
      "stateMutability": "nonpayable",
      "type": "function"
    },
    {
      "inputs": [
        {
          "internalType": "address",
          "name": "operator",
          "type": "address"
        },
        {
          "internalType": "bool",
          "name": "approved",
          "type": "bool"
        }
      ],
      "name": "setApprovalForAll",
      "outputs": [],
      "stateMutability": "nonpayable",
      "type": "function"
    },
    {
      "inputs": [
        {
          "internalType": "bytes4",
          "name": "interfaceId",
          "type": "bytes4"
        }
      ],
      "name": "supportsInterface",
      "outputs": [
        {
          "internalType": "bool",
          "name": "",
          "type": "bool"
        }
      ],
      "stateMutability": "view",
      "type": "function"
    },
    {
      "inputs": [],
      "name": "symbol",
      "outputs": [
        {
          "internalType": "string",
          "name": "",
          "type": "string"
        }
      ],
      "stateMutability": "view",
      "type": "function"
    },
    {
      "inputs": [
        {
          "internalType": "uint256",
          "name": "tokenId",
          "type": "uint256"
        }
      ],
      "name": "tokenURI",
      "outputs": [
        {
          "internalType": "string",
          "name": "",
          "type": "string"
        }
      ],
      "stateMutability": "view",
      "type": "function"
    },
    {
      "inputs": [],
      "name": "totalMinted",
      "outputs": [
        {
          "internalType": "uint256",
          "name": "",
          "type": "uint256"
        }
      ],
      "stateMutability": "view",
      "type": "function"
    },
    {
      "inputs": [
        {
          "internalType": "address",
          "name": "from",
          "type": "address"
        },
        {
          "internalType": "address",
          "name": "to",
          "type": "address"
        },
        {
          "internalType": "uint256",
          "name": "tokenId",
          "type": "uint256"
        }
      ],
      "name": "transferFrom",
      "outputs": [],
      "stateMutability": "nonpayable",
      "type": "function"
    }
  ],
  "bytecode": "0x6080604052620186a06008553480156200001857600080fd5b506040518060400160405280600981526020017f436c6f76657220465300000000000000000000000000000000000000000000008152506040518060400160405280600381526020017f434653000000000000000000000000000000000000000000000000000000000081525081600090805190602001906200009d92919062000100565b508060019080519060200190620000b692919062000100565b50505033600960006101000a81548173ffffffffffffffffffffffffffffffffffffffff021916908373ffffffffffffffffffffffffffffffffffffffff16021790555062000215565b8280546200010e90620001b0565b90600052602060002090601f0160209004810192826200013257600085556200017e565b82601f106200014d57805160ff19168380011785556200017e565b828001600101855582156200017e579182015b828111156200017d57825182559160200191906001019062000160565b5b5090506200018d919062000191565b5090565b5b80821115620001ac57600081600090555060010162000192565b5090565b60006002820490506001821680620001c957607f821691505b60208210811415620001e057620001df620001e6565b5b50919050565b7f4e487b7100000000000000000000000000000000000000000000000000000000600052602260045260246000fd5b612ca680620002256000396000f3fe608060405234801561001057600080fd5b50600436106101005760003560e01c80636352211e11610097578063a2309ff811610066578063a2309ff8146102bd578063b88d4fde146102db578063c87b56dd146102f7578063e985e9c51461032757610100565b80636352211e1461022357806370a082311461025357806395d89b4114610283578063a22cb465146102a157610100565b806323b872dd116100d357806323b872dd1461019f57806340753a76146101bb57806342842e0e146101d7578063510a3ea9146101f357610100565b806301ffc9a71461010557806306fdde0314610135578063081812fc14610153578063095ea7b314610183575b600080fd5b61011f600480360381019061011a9190611f74565b610357565b60405161012c9190612340565b60405180910390f35b61013d610439565b60405161014a919061235b565b60405180910390f35b61016d60048036038101906101689190611fce565b6104cb565b60405161017a91906122d9565b60405180910390f35b61019d60048036038101906101989190611f34565b610511565b005b6101b960048036038101906101b49190611dc2565b610629565b005b6101d560048036038101906101d09190611fce565b610689565b005b6101f160048036038101906101ec9190611dc2565b610730565b005b61020d60048036038101906102089190611ed8565b610750565b60405161021a919061253d565b60405180910390f35b61023d60048036038101906102389190611fce565b6107d6565b60405161024a91906122d9565b60405180910390f35b61026d60048036038101906102689190611d55565b61085d565b60405161027a919061253d565b60405180910390f35b61028b610915565b604051610298919061235b565b60405180910390f35b6102bb60048036038101906102b69190611e98565b6109a7565b005b6102c56109bd565b6040516102d2919061253d565b60405180910390f35b6102f560048036038101906102f09190611e15565b6109ce565b005b610311600480360381019061030c9190611fce565b610a30565b60405161031e919061235b565b60405180910390f35b610341600480360381019061033c9190611d82565b610b43565b60405161034e9190612340565b60405180910390f35b60007f80ac58cd000000000000000000000000000000000000000000000000000000007bffffffffffffffffffffffffffffffffffffffffffffffffffffffff1916827bffffffffffffffffffffffffffffffffffffffffffffffffffffffff1916148061042257507f5b5e139f000000000000000000000000000000000000000000000000000000007bffffffffffffffffffffffffffffffffffffffffffffffffffffffff1916827bffffffffffffffffffffffffffffffffffffffffffffffffffffffff1916145b80610432575061043182610bd7565b5b9050919050565b60606000805461044890612762565b80601f016020809104026020016040519081016040528092919081815260200182805461047490612762565b80156104c15780601f10610496576101008083540402835291602001916104c1565b820191906000526020600020905b8154815290600101906020018083116104a457829003601f168201915b5050505050905090565b60006104d682610c41565b6004600083815260200190815260200160002060009054906101000a900473ffffffffffffffffffffffffffffffffffffffff169050919050565b600061051c826107d6565b90508073ffffffffffffffffffffffffffffffffffffffff168373ffffffffffffffffffffffffffffffffffffffff16141561058d576040517f08c379a0000000000000000000000000000000000000000000000000000000008152600401610584906124dd565b60405180910390fd5b8073ffffffffffffffffffffffffffffffffffffffff166105ac610c8c565b73ffffffffffffffffffffffffffffffffffffffff1614806105db57506105da816105d5610c8c565b610b43565b5b61061a576040517f08c379a0000000000000000000000000000000000000000000000000000000008152600401610611906124fd565b60405180910390fd5b6106248383610c94565b505050565b61063a610634610c8c565b82610d4d565b610679576040517f08c379a00000000000000000000000000000000000000000000000000000000081526004016106709061237d565b60405180910390fd5b610684838383610de2565b505050565b600960009054906101000a900473ffffffffffffffffffffffffffffffffffffffff1673ffffffffffffffffffffffffffffffffffffffff163373ffffffffffffffffffffffffffffffffffffffff1614610719576040517f08c379a00000000000000000000000000000000000000000000000000000000081526004016107109061239d565b60405180910390fd5b806008546107279190612622565b60088190555050565b61074b838383604051806020016040528060008152506109ce565b505050565b600061075c60076110dc565b60085410156107a0576040517f08c379a00000000000000000000000000000000000000000000000000000000081526004016107979061251d565b60405180910390fd5b60006107ac60076110dc565b90506107b884826110ea565b6107c28184611308565b6107cc600761137c565b8091505092915050565b6000806107e283611392565b9050600073ffffffffffffffffffffffffffffffffffffffff168173ffffffffffffffffffffffffffffffffffffffff161415610854576040517f08c379a000000000000000000000000000000000000000000000000000000000815260040161084b906124bd565b60405180910390fd5b80915050919050565b60008073ffffffffffffffffffffffffffffffffffffffff168273ffffffffffffffffffffffffffffffffffffffff1614156108ce576040517f08c379a00000000000000000000000000000000000000000000000000000000081526004016108c59061245d565b60405180910390fd5b600360008373ffffffffffffffffffffffffffffffffffffffff1673ffffffffffffffffffffffffffffffffffffffff168152602001908152602001600020549050919050565b60606001805461092490612762565b80601f016020809104026020016040519081016040528092919081815260200182805461095090612762565b801561099d5780601f106109725761010080835404028352916020019161099d565b820191906000526020600020905b81548152906001019060200180831161098057829003601f168201915b5050505050905090565b6109b96109b2610c8c565b83836113cf565b5050565b60006109c960076110dc565b905090565b6109df6109d9610c8c565b83610d4d565b610a1e576040517f08c379a0000000000000000000000000000000000000000000000000000000008152600401610a159061237d565b60405180910390fd5b610a2a8484848461153c565b50505050565b6060610a3b82610c41565b6000600660008481526020019081526020016000208054610a5b90612762565b80601f0160208091040260200160405190810160405280929190818152602001828054610a8790612762565b8015610ad45780601f10610aa957610100808354040283529160200191610ad4565b820191906000526020600020905b815481529060010190602001808311610ab757829003601f168201915b505050505090506000610ae5611598565b9050600081511415610afb578192505050610b3e565b600082511115610b30578082604051602001610b189291906122b5565b60405160208183030381529060405292505050610b3e565b610b39846115af565b925050505b919050565b6000600560008473ffffffffffffffffffffffffffffffffffffffff1673ffffffffffffffffffffffffffffffffffffffff16815260200190815260200160002060008373ffffffffffffffffffffffffffffffffffffffff1673ffffffffffffffffffffffffffffffffffffffff16815260200190815260200160002060009054906101000a900460ff16905092915050565b60007f01ffc9a7000000000000000000000000000000000000000000000000000000007bffffffffffffffffffffffffffffffffffffffffffffffffffffffff1916827bffffffffffffffffffffffffffffffffffffffffffffffffffffffff1916149050919050565b610c4a81611617565b610c89576040517f08c379a0000000000000000000000000000000000000000000000000000000008152600401610c80906124bd565b60405180910390fd5b50565b600033905090565b816004600083815260200190815260200160002060006101000a81548173ffffffffffffffffffffffffffffffffffffffff021916908373ffffffffffffffffffffffffffffffffffffffff160217905550808273ffffffffffffffffffffffffffffffffffffffff16610d07836107d6565b73ffffffffffffffffffffffffffffffffffffffff167f8c5be1e5ebec7d5bd14f71427d1e84f3dd0314c0f7b2291e5b200ac8c7c3b92560405160405180910390a45050565b600080610d59836107d6565b90508073ffffffffffffffffffffffffffffffffffffffff168473ffffffffffffffffffffffffffffffffffffffff161480610d9b5750610d9a8185610b43565b5b80610dd957508373ffffffffffffffffffffffffffffffffffffffff16610dc1846104cb565b73ffffffffffffffffffffffffffffffffffffffff16145b91505092915050565b8273ffffffffffffffffffffffffffffffffffffffff16610e02826107d6565b73ffffffffffffffffffffffffffffffffffffffff1614610e58576040517f08c379a0000000000000000000000000000000000000000000000000000000008152600401610e4f906123dd565b60405180910390fd5b600073ffffffffffffffffffffffffffffffffffffffff168273ffffffffffffffffffffffffffffffffffffffff161415610ec8576040517f08c379a0000000000000000000000000000000000000000000000000000000008152600401610ebf9061241d565b60405180910390fd5b610ed58383836001611658565b8273ffffffffffffffffffffffffffffffffffffffff16610ef5826107d6565b73ffffffffffffffffffffffffffffffffffffffff1614610f4b576040517f08c379a0000000000000000000000000000000000000000000000000000000008152600401610f42906123dd565b60405180910390fd5b6004600082815260200190815260200160002060006101000a81549073ffffffffffffffffffffffffffffffffffffffff02191690556001600360008573ffffffffffffffffffffffffffffffffffffffff1673ffffffffffffffffffffffffffffffffffffffff168152602001908152602001600020600082825403925050819055506001600360008473ffffffffffffffffffffffffffffffffffffffff1673ffffffffffffffffffffffffffffffffffffffff16815260200190815260200160002060008282540192505081905550816002600083815260200190815260200160002060006101000a81548173ffffffffffffffffffffffffffffffffffffffff021916908373ffffffffffffffffffffffffffffffffffffffff160217905550808273ffffffffffffffffffffffffffffffffffffffff168473ffffffffffffffffffffffffffffffffffffffff167fddf252ad1be2c89b69c2b068fc378daa952ba7f163c4a11628f55a4df523b3ef60405160405180910390a46110d7838383600161177e565b505050565b600081600001549050919050565b600073ffffffffffffffffffffffffffffffffffffffff168273ffffffffffffffffffffffffffffffffffffffff16141561115a576040517f08c379a00000000000000000000000000000000000000000000000000000000081526004016111519061249d565b60405180910390fd5b61116381611617565b156111a3576040517f08c379a000000000000000000000000000000000000000000000000000000000815260040161119a906123fd565b60405180910390fd5b6111b1600083836001611658565b6111ba81611617565b156111fa576040517f08c379a00000000000000000000000000000000000000000000000000000000081526004016111f1906123fd565b60405180910390fd5b6001600360008473ffffffffffffffffffffffffffffffffffffffff1673ffffffffffffffffffffffffffffffffffffffff16815260200190815260200160002060008282540192505081905550816002600083815260200190815260200160002060006101000a81548173ffffffffffffffffffffffffffffffffffffffff021916908373ffffffffffffffffffffffffffffffffffffffff160217905550808273ffffffffffffffffffffffffffffffffffffffff16600073ffffffffffffffffffffffffffffffffffffffff167fddf252ad1be2c89b69c2b068fc378daa952ba7f163c4a11628f55a4df523b3ef60405160405180910390a461130460008383600161177e565b5050565b61131182611617565b611350576040517f08c379a00000000000000000000000000000000000000000000000000000000081526004016113479061247d565b60405180910390fd5b80600660008481526020019081526020016000209080519060200190611377929190611b69565b505050565b6001816000016000828254019250508190555050565b60006002600083815260200190815260200160002060009054906101000a900473ffffffffffffffffffffffffffffffffffffffff169050919050565b8173ffffffffffffffffffffffffffffffffffffffff168373ffffffffffffffffffffffffffffffffffffffff16141561143e576040517f08c379a00000000000000000000000000000000000000000000000000000000081526004016114359061243d565b60405180910390fd5b80600560008573ffffffffffffffffffffffffffffffffffffffff1673ffffffffffffffffffffffffffffffffffffffff16815260200190815260200160002060008473ffffffffffffffffffffffffffffffffffffffff1673ffffffffffffffffffffffffffffffffffffffff16815260200190815260200160002060006101000a81548160ff0219169083151502179055508173ffffffffffffffffffffffffffffffffffffffff168373ffffffffffffffffffffffffffffffffffffffff167f17307eab39ab6107e8899845ad3d59bd9653f200f220920489ca2b5937696c318360405161152f9190612340565b60405180910390a3505050565b611547848484610de2565b61155384848484611784565b611592576040517f08c379a0000000000000000000000000000000000000000000000000000000008152600401611589906123bd565b60405180910390fd5b50505050565b606060405180602001604052806000815250905090565b60606115ba82610c41565b60006115c4611598565b905060008151116115e4576040518060200160405280600081525061160f565b806115ee8461191b565b6040516020016115ff9291906122b5565b6040516020818303038152906040525b915050919050565b60008073ffffffffffffffffffffffffffffffffffffffff1661163983611392565b73ffffffffffffffffffffffffffffffffffffffff1614159050919050565b600181111561177857600073ffffffffffffffffffffffffffffffffffffffff168473ffffffffffffffffffffffffffffffffffffffff16146116ec5780600360008673ffffffffffffffffffffffffffffffffffffffff1673ffffffffffffffffffffffffffffffffffffffff16815260200190815260200160002060008282546116e49190612678565b925050819055505b600073ffffffffffffffffffffffffffffffffffffffff168373ffffffffffffffffffffffffffffffffffffffff16146117775780600360008573ffffffffffffffffffffffffffffffffffffffff1673ffffffffffffffffffffffffffffffffffffffff168152602001908152602001600020600082825461176f9190612622565b925050819055505b5b50505050565b50505050565b60006117a58473ffffffffffffffffffffffffffffffffffffffff166119f3565b1561190e578373ffffffffffffffffffffffffffffffffffffffff1663150b7a026117ce610c8c565b8786866040518563ffffffff1660e01b81526004016117f094939291906122f4565b602060405180830381600087803b15801561180a57600080fd5b505af192505050801561183b57506040513d601f19601f820116820180604052508101906118389190611fa1565b60015b6118be573d806000811461186b576040519150601f19603f3d011682016040523d82523d6000602084013e611870565b606091505b506000815114156118b6576040517f08c379a00000000000000000000000000000000000000000000000000000000081526004016118ad906123bd565b60405180910390fd5b805181602001fd5b63150b7a0260e01b7bffffffffffffffffffffffffffffffffffffffffffffffffffffffff1916817bffffffffffffffffffffffffffffffffffffffffffffffffffffffff191614915050611913565b600190505b949350505050565b60606000600161192a84611a16565b01905060008167ffffffffffffffff81111561194957611948612852565b5b6040519080825280601f01601f19166020018201604052801561197b5781602001600182028036833780820191505090505b509050600082602001820190505b6001156119e8578080600190039150507f3031323334353637383961626364656600000000000000000000000000000000600a86061a8153600a85816119d2576119d16127f4565b5b04945060008514156119e3576119e8565b611989565b819350505050919050565b6000808273ffffffffffffffffffffffffffffffffffffffff163b119050919050565b600080600090507a184f03e93ff9f4daa797ed6e38ed64bf6a1f0100000000000000008310611a74577a184f03e93ff9f4daa797ed6e38ed64bf6a1f0100000000000000008381611a6a57611a696127f4565b5b0492506040810190505b6d04ee2d6d415b85acef81000000008310611ab1576d04ee2d6d415b85acef81000000008381611aa757611aa66127f4565b5b0492506020810190505b662386f26fc100008310611ae057662386f26fc100008381611ad657611ad56127f4565b5b0492506010810190505b6305f5e1008310611b09576305f5e1008381611aff57611afe6127f4565b5b0492506008810190505b6127108310611b2e576127108381611b2457611b236127f4565b5b0492506004810190505b60648310611b515760648381611b4757611b466127f4565b5b0492506002810190505b600a8310611b60576001810190505b80915050919050565b828054611b7590612762565b90600052602060002090601f016020900481019282611b975760008555611bde565b82601f10611bb057805160ff1916838001178555611bde565b82800160010185558215611bde579182015b82811115611bdd578251825591602001919060010190611bc2565b5b509050611beb9190611bef565b5090565b5b80821115611c08576000816000905550600101611bf0565b5090565b6000611c1f611c1a8461257d565b612558565b905082815260208101848484011115611c3b57611c3a612886565b5b611c46848285612720565b509392505050565b6000611c61611c5c846125ae565b612558565b905082815260208101848484011115611c7d57611c7c612886565b5b611c88848285612720565b509392505050565b600081359050611c9f81612c14565b92915050565b600081359050611cb481612c2b565b92915050565b600081359050611cc981612c42565b92915050565b600081519050611cde81612c42565b92915050565b600082601f830112611cf957611cf8612881565b5b8135611d09848260208601611c0c565b91505092915050565b600082601f830112611d2757611d26612881565b5b8135611d37848260208601611c4e565b91505092915050565b600081359050611d4f81612c59565b92915050565b600060208284031215611d6b57611d6a612890565b5b6000611d7984828501611c90565b91505092915050565b60008060408385031215611d9957611d98612890565b5b6000611da785828601611c90565b9250506020611db885828601611c90565b9150509250929050565b600080600060608486031215611ddb57611dda612890565b5b6000611de986828701611c90565b9350506020611dfa86828701611c90565b9250506040611e0b86828701611d40565b9150509250925092565b60008060008060808587031215611e2f57611e2e612890565b5b6000611e3d87828801611c90565b9450506020611e4e87828801611c90565b9350506040611e5f87828801611d40565b925050606085013567ffffffffffffffff811115611e8057611e7f61288b565b5b611e8c87828801611ce4565b91505092959194509250565b60008060408385031215611eaf57611eae612890565b5b6000611ebd85828601611c90565b9250506020611ece85828601611ca5565b9150509250929050565b60008060408385031215611eef57611eee612890565b5b6000611efd85828601611c90565b925050602083013567ffffffffffffffff811115611f1e57611f1d61288b565b5b611f2a85828601611d12565b9150509250929050565b60008060408385031215611f4b57611f4a612890565b5b6000611f5985828601611c90565b9250506020611f6a85828601611d40565b9150509250929050565b600060208284031215611f8a57611f89612890565b5b6000611f9884828501611cba565b91505092915050565b600060208284031215611fb757611fb6612890565b5b6000611fc584828501611ccf565b91505092915050565b600060208284031215611fe457611fe3612890565b5b6000611ff284828501611d40565b91505092915050565b612004816126ac565b82525050565b612013816126be565b82525050565b6000612024826125df565b61202e81856125f5565b935061203e81856020860161272f565b61204781612895565b840191505092915050565b600061205d826125ea565b6120678185612606565b935061207781856020860161272f565b61208081612895565b840191505092915050565b6000612096826125ea565b6120a08185612617565b93506120b081856020860161272f565b80840191505092915050565b60006120c9602d83612606565b91506120d4826128a6565b604082019050919050565b60006120ec600a83612606565b91506120f7826128f5565b602082019050919050565b600061210f603283612606565b915061211a8261291e565b604082019050919050565b6000612132602583612606565b915061213d8261296d565b604082019050919050565b6000612155601c83612606565b9150612160826129bc565b602082019050919050565b6000612178602483612606565b9150612183826129e5565b604082019050919050565b600061219b601983612606565b91506121a682612a34565b602082019050919050565b60006121be602983612606565b91506121c982612a5d565b604082019050919050565b60006121e1602e83612606565b91506121ec82612aac565b604082019050919050565b6000612204602083612606565b915061220f82612afb565b602082019050919050565b6000612227601883612606565b915061223282612b24565b602082019050919050565b600061224a602183612606565b915061225582612b4d565b604082019050919050565b600061226d603d83612606565b915061227882612b9c565b604082019050919050565b6000612290601383612606565b915061229b82612beb565b602082019050919050565b6122af81612716565b82525050565b60006122c1828561208b565b91506122cd828461208b565b91508190509392505050565b60006020820190506122ee6000830184611ffb565b92915050565b60006080820190506123096000830187611ffb565b6123166020830186611ffb565b61232360408301856122a6565b81810360608301526123358184612019565b905095945050505050565b6000602082019050612355600083018461200a565b92915050565b600060208201905081810360008301526123758184612052565b905092915050565b60006020820190508181036000830152612396816120bc565b9050919050565b600060208201905081810360008301526123b6816120df565b9050919050565b600060208201905081810360008301526123d681612102565b9050919050565b600060208201905081810360008301526123f681612125565b9050919050565b6000602082019050818103600083015261241681612148565b9050919050565b600060208201905081810360008301526124368161216b565b9050919050565b600060208201905081810360008301526124568161218e565b9050919050565b60006020820190508181036000830152612476816121b1565b9050919050565b60006020820190508181036000830152612496816121d4565b9050919050565b600060208201905081810360008301526124b6816121f7565b9050919050565b600060208201905081810360008301526124d68161221a565b9050919050565b600060208201905081810360008301526124f68161223d565b9050919050565b6000602082019050818103600083015261251681612260565b9050919050565b6000602082019050818103600083015261253681612283565b9050919050565b600060208201905061255260008301846122a6565b92915050565b6000612562612573565b905061256e8282612794565b919050565b6000604051905090565b600067ffffffffffffffff82111561259857612597612852565b5b6125a182612895565b9050602081019050919050565b600067ffffffffffffffff8211156125c9576125c8612852565b5b6125d282612895565b9050602081019050919050565b600081519050919050565b600081519050919050565b600082825260208201905092915050565b600082825260208201905092915050565b600081905092915050565b600061262d82612716565b915061263883612716565b9250827fffffffffffffffffffffffffffffffffffffffffffffffffffffffffffffffff0382111561266d5761266c6127c5565b5b828201905092915050565b600061268382612716565b915061268e83612716565b9250828210156126a1576126a06127c5565b5b828203905092915050565b60006126b7826126f6565b9050919050565b60008115159050919050565b60007fffffffff0000000000000000000000000000000000000000000000000000000082169050919050565b600073ffffffffffffffffffffffffffffffffffffffff82169050919050565b6000819050919050565b82818337600083830152505050565b60005b8381101561274d578082015181840152602081019050612732565b8381111561275c576000848401525b50505050565b6000600282049050600182168061277a57607f821691505b6020821081141561278e5761278d612823565b5b50919050565b61279d82612895565b810181811067ffffffffffffffff821117156127bc576127bb612852565b5b80604052505050565b7f4e487b7100000000000000000000000000000000000000000000000000000000600052601160045260246000fd5b7f4e487b7100000000000000000000000000000000000000000000000000000000600052601260045260246000fd5b7f4e487b7100000000000000000000000000000000000000000000000000000000600052602260045260246000fd5b7f4e487b7100000000000000000000000000000000000000000000000000000000600052604160045260246000fd5b600080fd5b600080fd5b600080fd5b600080fd5b6000601f19601f8301169050919050565b7f4552433732313a2063616c6c6572206973206e6f7420746f6b656e206f776e6560008201527f72206f7220617070726f76656400000000000000000000000000000000000000602082015250565b7f4f6e6c79206f776e657200000000000000000000000000000000000000000000600082015250565b7f4552433732313a207472616e7366657220746f206e6f6e20455243373231526560008201527f63656976657220696d706c656d656e7465720000000000000000000000000000602082015250565b7f4552433732313a207472616e736665722066726f6d20696e636f72726563742060008201527f6f776e6572000000000000000000000000000000000000000000000000000000602082015250565b7f4552433732313a20746f6b656e20616c7265616479206d696e74656400000000600082015250565b7f4552433732313a207472616e7366657220746f20746865207a65726f2061646460008201527f7265737300000000000000000000000000000000000000000000000000000000602082015250565b7f4552433732313a20617070726f766520746f2063616c6c657200000000000000600082015250565b7f4552433732313a2061646472657373207a65726f206973206e6f74206120766160008201527f6c6964206f776e65720000000000000000000000000000000000000000000000602082015250565b7f45524337323155524953746f726167653a2055524920736574206f66206e6f6e60008201527f6578697374656e7420746f6b656e000000000000000000000000000000000000602082015250565b7f4552433732313a206d696e7420746f20746865207a65726f2061646472657373600082015250565b7f4552433732313a20696e76616c696420746f6b656e2049440000000000000000600082015250565b7f4552433732313a20617070726f76616c20746f2063757272656e74206f776e6560008201527f7200000000000000000000000000000000000000000000000000000000000000602082015250565b7f4552433732313a20617070726f76652063616c6c6572206973206e6f7420746f60008201527f6b656e206f776e6572206f7220617070726f76656420666f7220616c6c000000602082015250565b7f546f74616c204c696d6974205265616368656400000000000000000000000000600082015250565b612c1d816126ac565b8114612c2857600080fd5b50565b612c34816126be565b8114612c3f57600080fd5b50565b612c4b816126ca565b8114612c5657600080fd5b50565b612c6281612716565b8114612c6d57600080fd5b5056fea2646970667358221220b0547449ca4168592bce9850bd06807a749fb3bb08b510a2db2a77f980ac68ad64736f6c63430008070033",
  "linkReferences": {},
  "deployedLinkReferences": {}
}